{
  "contractName": "OurExchanger",
  "abi": [
    {
      "constant": true,
      "inputs": [],
      "name": "manager",
      "outputs": [
        {
          "name": "",
          "type": "address"
        }
      ],
      "payable": false,
      "type": "function",
      "stateMutability": "view"
    },
    {
      "constant": false,
      "inputs": [
        {
          "name": "_fromCurrency",
          "type": "address"
        },
        {
          "name": "_toCurrency",
          "type": "address"
        },
        {
          "name": "_value",
          "type": "uint256"
        }
      ],
      "name": "exchange",
      "outputs": [],
      "payable": false,
      "type": "function",
      "stateMutability": "nonpayable"
    },
    {
      "constant": true,
      "inputs": [
        {
          "name": "",
          "type": "address"
        },
        {
          "name": "",
          "type": "address"
        }
      ],
      "name": "course",
      "outputs": [
        {
          "name": "",
          "type": "uint256"
        }
      ],
      "payable": false,
      "type": "function",
      "stateMutability": "view"
    },
    {
      "constant": false,
      "inputs": [
        {
          "name": "_token",
          "type": "address"
        }
      ],
      "name": "allowToken",
      "outputs": [],
      "payable": false,
      "type": "function",
      "stateMutability": "nonpayable"
    },
    {
      "constant": false,
      "inputs": [
        {
          "name": "_to",
          "type": "address"
        },
        {
          "name": "_currency",
          "type": "address"
        },
        {
          "name": "_value",
          "type": "uint256"
        }
      ],
      "name": "sendTokens",
      "outputs": [],
      "payable": false,
      "type": "function",
      "stateMutability": "nonpayable"
    },
    {
      "constant": true,
      "inputs": [],
      "name": "BASE",
      "outputs": [
        {
          "name": "",
          "type": "uint256"
        }
      ],
      "payable": false,
      "type": "function",
      "stateMutability": "view"
    },
    {
      "constant": false,
      "inputs": [
        {
          "name": "_token",
          "type": "address"
        }
      ],
      "name": "rejectToken",
      "outputs": [],
      "payable": false,
      "type": "function",
      "stateMutability": "nonpayable"
    },
    {
      "constant": true,
      "inputs": [
        {
          "name": "",
          "type": "address"
        }
      ],
      "name": "isTokenAllowed",
      "outputs": [
        {
          "name": "",
          "type": "bool"
        }
      ],
      "payable": false,
      "type": "function",
      "stateMutability": "view"
    },
    {
      "constant": false,
      "inputs": [
        {
          "name": "_fromCurrency",
          "type": "address"
        },
        {
          "name": "_toCurrency",
          "type": "address"
        },
        {
          "name": "_course",
          "type": "uint256"
        }
      ],
      "name": "setCourse",
      "outputs": [],
      "payable": false,
      "type": "function",
      "stateMutability": "nonpayable"
    },
    {
      "inputs": [
        {
          "name": "_manager",
          "type": "address"
        }
      ],
      "payable": false,
      "type": "constructor",
      "stateMutability": "nonpayable"
    }
  ],
  "bytecode": "0x6060604052341561000f57600080fd5b604051602080610e4983398101604052808051906020019091905050806000806101000a81548173ffffffffffffffffffffffffffffffffffffffff021916908373ffffffffffffffffffffffffffffffffffffffff16021790555050610dce8061007b6000396000f300606060405260043610610099576000357c0100000000000000000000000000000000000000000000000000000000900463ffffffff168063481c6a751461009e578063969e3756146100f35780639a6bdce714610154578063b53472ef146101c0578063e6d66ac8146101f9578063ec342ad01461025a578063f05ab9de14610283578063f9eaee0d146102bc578063fe19b3241461030d575b600080fd5b34156100a957600080fd5b6100b161036e565b604051808273ffffffffffffffffffffffffffffffffffffffff1673ffffffffffffffffffffffffffffffffffffffff16815260200191505060405180910390f35b34156100fe57600080fd5b610152600480803573ffffffffffffffffffffffffffffffffffffffff1690602001909190803573ffffffffffffffffffffffffffffffffffffffff16906020019091908035906020019091905050610393565b005b341561015f57600080fd5b6101aa600480803573ffffffffffffffffffffffffffffffffffffffff1690602001909190803573ffffffffffffffffffffffffffffffffffffffff16906020019091905050610908565b6040518082815260200191505060405180910390f35b34156101cb57600080fd5b6101f7600480803573ffffffffffffffffffffffffffffffffffffffff1690602001909190505061092d565b005b341561020457600080fd5b610258600480803573ffffffffffffffffffffffffffffffffffffffff1690602001909190803573ffffffffffffffffffffffffffffffffffffffff169060200190919080359060200190919050506109e2565b005b341561026557600080fd5b61026d610bdf565b6040518082815260200191505060405180910390f35b341561028e57600080fd5b6102ba600480803573ffffffffffffffffffffffffffffffffffffffff16906020019091905050610beb565b005b34156102c757600080fd5b6102f3600480803573ffffffffffffffffffffffffffffffffffffffff16906020019091905050610ca1565b604051808215151515815260200191505060405180910390f35b341561031857600080fd5b61036c600480803573ffffffffffffffffffffffffffffffffffffffff1690602001909190803573ffffffffffffffffffffffffffffffffffffffff16906020019091908035906020019091905050610cc1565b005b6000809054906101000a900473ffffffffffffffffffffffffffffffffffffffff1681565b6000806000600160008773ffffffffffffffffffffffffffffffffffffffff1673ffffffffffffffffffffffffffffffffffffffff16815260200190815260200160002060009054906101000a900460ff1615156103f057600080fd5b600160008673ffffffffffffffffffffffffffffffffffffffff1673ffffffffffffffffffffffffffffffffffffffff16815260200190815260200160002060009054906101000a900460ff16151561044857600080fd5b6000600260008873ffffffffffffffffffffffffffffffffffffffff1673ffffffffffffffffffffffffffffffffffffffff16815260200190815260200160002060008773ffffffffffffffffffffffffffffffffffffffff1673ffffffffffffffffffffffffffffffffffffffff168152602001908152602001600020541115156104d057fe5b859250849150838373ffffffffffffffffffffffffffffffffffffffff1663dd62ed3e33306000604051602001526040518363ffffffff167c0100000000000000000000000000000000000000000000000000000000028152600401808373ffffffffffffffffffffffffffffffffffffffff1673ffffffffffffffffffffffffffffffffffffffff1681526020018273ffffffffffffffffffffffffffffffffffffffff1673ffffffffffffffffffffffffffffffffffffffff16815260200192505050602060405180830381600087803b15156105ae57600080fd5b6102c65a03f115156105bf57600080fd5b50505060405180519050101515156105d357fe5b670de0b6b3a7640000600260008873ffffffffffffffffffffffffffffffffffffffff1673ffffffffffffffffffffffffffffffffffffffff16815260200190815260200160002060008773ffffffffffffffffffffffffffffffffffffffff1673ffffffffffffffffffffffffffffffffffffffff16815260200190815260200160002054850281151561066457fe5b049050808273ffffffffffffffffffffffffffffffffffffffff166370a08231306000604051602001526040518263ffffffff167c0100000000000000000000000000000000000000000000000000000000028152600401808273ffffffffffffffffffffffffffffffffffffffff1673ffffffffffffffffffffffffffffffffffffffff168152602001915050602060405180830381600087803b151561070b57600080fd5b6102c65a03f1151561071c57600080fd5b505050604051805190501015151561073057fe5b8273ffffffffffffffffffffffffffffffffffffffff166323b872dd3330876000604051602001526040518463ffffffff167c0100000000000000000000000000000000000000000000000000000000028152600401808473ffffffffffffffffffffffffffffffffffffffff1673ffffffffffffffffffffffffffffffffffffffff1681526020018373ffffffffffffffffffffffffffffffffffffffff1673ffffffffffffffffffffffffffffffffffffffff1681526020018281526020019350505050602060405180830381600087803b151561080f57600080fd5b6102c65a03f1151561082057600080fd5b50505060405180519050151561083257fe5b8173ffffffffffffffffffffffffffffffffffffffff1663a9059cbb33836000604051602001526040518363ffffffff167c0100000000000000000000000000000000000000000000000000000000028152600401808373ffffffffffffffffffffffffffffffffffffffff1673ffffffffffffffffffffffffffffffffffffffff16815260200182815260200192505050602060405180830381600087803b15156108dd57600080fd5b6102c65a03f115156108ee57600080fd5b50505060405180519050151561090057fe5b505050505050565b6002602052816000526040600020602052806000526040600020600091509150505481565b6000809054906101000a900473ffffffffffffffffffffffffffffffffffffffff1673ffffffffffffffffffffffffffffffffffffffff163373ffffffffffffffffffffffffffffffffffffffff1614151561098857600080fd5b60018060008373ffffffffffffffffffffffffffffffffffffffff1673ffffffffffffffffffffffffffffffffffffffff16815260200190815260200160002060006101000a81548160ff02191690831515021790555050565b60008060009054906101000a900473ffffffffffffffffffffffffffffffffffffffff1673ffffffffffffffffffffffffffffffffffffffff163373ffffffffffffffffffffffffffffffffffffffff16141515610a3f57600080fd5b829050818173ffffffffffffffffffffffffffffffffffffffff166370a08231306000604051602001526040518263ffffffff167c0100000000000000000000000000000000000000000000000000000000028152600401808273ffffffffffffffffffffffffffffffffffffffff1673ffffffffffffffffffffffffffffffffffffffff168152602001915050602060405180830381600087803b1515610ae657600080fd5b6102c65a03f11515610af757600080fd5b5050506040518051905010151515610b0b57fe5b8073ffffffffffffffffffffffffffffffffffffffff1663a9059cbb85846000604051602001526040518363ffffffff167c0100000000000000000000000000000000000000000000000000000000028152600401808373ffffffffffffffffffffffffffffffffffffffff1673ffffffffffffffffffffffffffffffffffffffff16815260200182815260200192505050602060405180830381600087803b1515610bb657600080fd5b6102c65a03f11515610bc757600080fd5b505050604051805190501515610bd957fe5b50505050565b670de0b6b3a764000081565b6000809054906101000a900473ffffffffffffffffffffffffffffffffffffffff1673ffffffffffffffffffffffffffffffffffffffff163373ffffffffffffffffffffffffffffffffffffffff16141515610c4657600080fd5b6000600160008373ffffffffffffffffffffffffffffffffffffffff1673ffffffffffffffffffffffffffffffffffffffff16815260200190815260200160002060006101000a81548160ff02191690831515021790555050565b60016020528060005260406000206000915054906101000a900460ff1681565b6000809054906101000a900473ffffffffffffffffffffffffffffffffffffffff1673ffffffffffffffffffffffffffffffffffffffff163373ffffffffffffffffffffffffffffffffffffffff16141515610d1c57600080fd5b80600260008573ffffffffffffffffffffffffffffffffffffffff1673ffffffffffffffffffffffffffffffffffffffff16815260200190815260200160002060008473ffffffffffffffffffffffffffffffffffffffff1673ffffffffffffffffffffffffffffffffffffffff168152602001908152602001600020819055505050505600a165627a7a723058204f0f62be7b33d138f979a8ae0be5c0b1ad2c8a1d4050eab80fc707429fdcf3ad0029",
  "source": "pragma solidity ^0.4.15;\r\n\r\nimport \"./AbstractToken.sol\";\r\nimport \"./Exchanger.sol\";\r\n\r\ncontract OurExchanger is Exchanger {\r\n    address public manager;\r\n    uint public constant BASE = 1000000000000000000;\r\n    mapping (address => bool) public isTokenAllowed;\r\n    mapping (address => mapping (address => uint)) public course;\r\n    \r\n    modifier onlyManager {\r\n        require(msg.sender == manager);\r\n        _;\r\n    }\r\n    \r\n    function OurExchanger(address _manager) public {\r\n        manager = _manager;\r\n    }\r\n    function allowToken(address _token) public onlyManager {\r\n        isTokenAllowed[_token] = true;\r\n    }\r\n    function rejectToken(address _token) public onlyManager {\r\n        isTokenAllowed[_token] = false;\r\n    }\r\n    function setCourse(address _fromCurrency, address _toCurrency, uint _course) public onlyManager {\r\n        course[_fromCurrency][_toCurrency] = _course;\r\n    }\r\n    function exchange(address _fromCurrency, address _toCurrency, uint _value) public {\r\n        require(isTokenAllowed[_fromCurrency]);\r\n        require(isTokenAllowed[_toCurrency]);\r\n        assert(course[_fromCurrency][_toCurrency] > 0);\r\n        AbstractToken fromToken = AbstractToken(_fromCurrency);\r\n        AbstractToken toToken = AbstractToken(_toCurrency);\r\n        \r\n        assert(fromToken.allowance(msg.sender, address(this)) >= _value);\r\n        \r\n        uint toValue = _value * course[_fromCurrency][_toCurrency] / BASE;\r\n        assert(toToken.balanceOf(address(this)) >= toValue);\r\n        \r\n        assert(fromToken.transferFrom(msg.sender, address(this), _value));\r\n        assert(toToken.transfer(msg.sender, toValue));\r\n    }\r\n    function sendTokens(address _to, address _currency, uint _value) public onlyManager {\r\n        AbstractToken token = AbstractToken(_currency);\r\n        assert(token.balanceOf(address(this)) >= _value);\r\n        assert(token.transfer(_to, _value));\r\n    }\r\n}",
  "sourcePath": "C:\\Users\\mi\\Desktop\\My projects\\blockchain\\WealthMan.io\\contracts\\OurExchanger.sol",
  "compiler": {
    "name": "solc",
    "version": "0.4.18+commit.9cf6e910.Emscripten.clang"
  },
  "schemaVersion": "1.0.1",
  "updatedAt": "2017-12-06T15:08:59.325Z"
}