{
  "contractName": "Portfolio",
  "abi": [
    {
      "constant": false,
      "inputs": [
        {
          "name": "_currency",
          "type": "address"
        }
      ],
      "name": "returnCurrency",
      "outputs": [],
      "payable": false,
      "type": "function",
      "stateMutability": "nonpayable"
    },
    {
      "constant": false,
      "inputs": [
        {
          "name": "_algorythmId",
          "type": "uint256"
        },
        {
          "name": "_algorythmParams",
          "type": "uint256[]"
        }
      ],
      "name": "changeAlgorythmParams",
      "outputs": [],
      "payable": false,
      "type": "function",
      "stateMutability": "nonpayable"
    },
    {
      "constant": false,
      "inputs": [],
      "name": "close",
      "outputs": [],
      "payable": false,
      "type": "function",
      "stateMutability": "nonpayable"
    },
    {
      "constant": true,
      "inputs": [],
      "name": "manager",
      "outputs": [
        {
          "name": "",
          "type": "address"
        }
      ],
      "payable": false,
      "type": "function",
      "stateMutability": "view"
    },
    {
      "constant": true,
      "inputs": [],
      "name": "exchanger",
      "outputs": [
        {
          "name": "",
          "type": "address"
        }
      ],
      "payable": false,
      "type": "function",
      "stateMutability": "view"
    },
    {
      "constant": true,
      "inputs": [],
      "name": "algorythmId",
      "outputs": [
        {
          "name": "",
          "type": "uint256"
        }
      ],
      "payable": false,
      "type": "function",
      "stateMutability": "view"
    },
    {
      "constant": false,
      "inputs": [
        {
          "name": "_currency",
          "type": "address"
        }
      ],
      "name": "addCurrency",
      "outputs": [],
      "payable": false,
      "type": "function",
      "stateMutability": "nonpayable"
    },
    {
      "constant": true,
      "inputs": [],
      "name": "owner",
      "outputs": [
        {
          "name": "",
          "type": "address"
        }
      ],
      "payable": false,
      "type": "function",
      "stateMutability": "view"
    },
    {
      "constant": false,
      "inputs": [
        {
          "name": "_fromCurrency",
          "type": "address"
        },
        {
          "name": "_toCurrency",
          "type": "address"
        },
        {
          "name": "_value",
          "type": "uint256"
        }
      ],
      "name": "exchange",
      "outputs": [],
      "payable": false,
      "type": "function",
      "stateMutability": "nonpayable"
    },
    {
      "constant": true,
      "inputs": [
        {
          "name": "",
          "type": "uint256"
        }
      ],
      "name": "algorythmParams",
      "outputs": [
        {
          "name": "",
          "type": "uint256"
        }
      ],
      "payable": false,
      "type": "function",
      "stateMutability": "view"
    },
    {
      "constant": true,
      "inputs": [],
      "name": "isClosed",
      "outputs": [
        {
          "name": "",
          "type": "bool"
        }
      ],
      "payable": false,
      "type": "function",
      "stateMutability": "view"
    },
    {
      "constant": false,
      "inputs": [
        {
          "name": "_currency",
          "type": "address"
        }
      ],
      "name": "removeCurrency",
      "outputs": [],
      "payable": false,
      "type": "function",
      "stateMutability": "nonpayable"
    },
    {
      "constant": true,
      "inputs": [
        {
          "name": "",
          "type": "uint256"
        }
      ],
      "name": "currencies",
      "outputs": [
        {
          "name": "",
          "type": "address"
        }
      ],
      "payable": false,
      "type": "function",
      "stateMutability": "view"
    },
    {
      "inputs": [
        {
          "name": "_owner",
          "type": "address"
        },
        {
          "name": "_algorythmId",
          "type": "uint256"
        },
        {
          "name": "_currencies",
          "type": "address[]"
        },
        {
          "name": "_algorythmParams",
          "type": "uint256[]"
        },
        {
          "name": "_exchanger",
          "type": "address"
        },
        {
          "name": "_manager",
          "type": "address"
        }
      ],
      "payable": false,
      "type": "constructor",
      "stateMutability": "nonpayable"
    }
  ],
  "bytecode": "0x60606040526000600560006101000a81548160ff02191690831515021790555034156200002b57600080fd5b6040516200153e3803806200153e8339810160405280805190602001909190805190602001909190805182019190602001805182019190602001805190602001909190805190602001909190505060008673ffffffffffffffffffffffffffffffffffffffff1614151515620000a057600080fd5b846002819055508360039080519060200190620000bf92919062000167565b508260049080519060200190620000d8929190620001f6565b5081600560016101000a81548173ffffffffffffffffffffffffffffffffffffffff021916908373ffffffffffffffffffffffffffffffffffffffff16021790555080600160006101000a81548173ffffffffffffffffffffffffffffffffffffffff021916908373ffffffffffffffffffffffffffffffffffffffff160217905550505050505050620002b6565b828054828255906000526020600020908101928215620001e3579160200282015b82811115620001e25782518260006101000a81548173ffffffffffffffffffffffffffffffffffffffff021916908373ffffffffffffffffffffffffffffffffffffffff1602179055509160200191906001019062000188565b5b509050620001f2919062000248565b5090565b82805482825590600052602060002090810192821562000235579160200282015b828111156200023457825182559160200191906001019062000217565b5b5090506200024491906200028e565b5090565b6200028b91905b808211156200028757600081816101000a81549073ffffffffffffffffffffffffffffffffffffffff0219169055506001016200024f565b5090565b90565b620002b391905b80821115620002af57600081600090555060010162000295565b5090565b90565b61127880620002c66000396000f3006060604052600436106100c5576000357c0100000000000000000000000000000000000000000000000000000000900463ffffffff16806313386486146100ca5780633bd4c7641461010357806343d726d614610166578063481c6a751461017b5780634d12fca4146101d057806364075a4f146102255780638ab234b61461024e5780638da5cb5b14610287578063969e3756146102dc578063b0cb1de61461033d578063c2b6b58c14610374578063c5d3a107146103a1578063f6d1c271146103da575b600080fd5b34156100d557600080fd5b610101600480803573ffffffffffffffffffffffffffffffffffffffff1690602001909190505061043d565b005b341561010e57600080fd5b6101646004808035906020019091908035906020019082018035906020019080806020026020016040519081016040528093929190818152602001838360200280828437820191505050505050919050506106b0565b005b341561017157600080fd5b61017961072d565b005b341561018657600080fd5b61018e61080a565b604051808273ffffffffffffffffffffffffffffffffffffffff1673ffffffffffffffffffffffffffffffffffffffff16815260200191505060405180910390f35b34156101db57600080fd5b6101e3610830565b604051808273ffffffffffffffffffffffffffffffffffffffff1673ffffffffffffffffffffffffffffffffffffffff16815260200191505060405180910390f35b341561023057600080fd5b610238610856565b6040518082815260200191505060405180910390f35b341561025957600080fd5b610285600480803573ffffffffffffffffffffffffffffffffffffffff1690602001909190505061085c565b005b341561029257600080fd5b61029a610b68565b604051808273ffffffffffffffffffffffffffffffffffffffff1673ffffffffffffffffffffffffffffffffffffffff16815260200191505060405180910390f35b34156102e757600080fd5b61033b600480803573ffffffffffffffffffffffffffffffffffffffff1690602001909190803573ffffffffffffffffffffffffffffffffffffffff16906020019091908035906020019091905050610b8d565b005b341561034857600080fd5b61035e6004808035906020019091905050610ed5565b6040518082815260200191505060405180910390f35b341561037f57600080fd5b610387610ef9565b604051808215151515815260200191505060405180910390f35b34156103ac57600080fd5b6103d8600480803573ffffffffffffffffffffffffffffffffffffffff16906020019091905050610f0c565b005b34156103e557600080fd5b6103fb600480803590602001909190505061109a565b604051808273ffffffffffffffffffffffffffffffffffffffff1673ffffffffffffffffffffffffffffffffffffffff16815260200191505060405180910390f35b6000806000809054906101000a900473ffffffffffffffffffffffffffffffffffffffff1673ffffffffffffffffffffffffffffffffffffffff163373ffffffffffffffffffffffffffffffffffffffff1614806104c657503073ffffffffffffffffffffffffffffffffffffffff163373ffffffffffffffffffffffffffffffffffffffff16145b15156104ce57fe5b8291508173ffffffffffffffffffffffffffffffffffffffff166370a082316000809054906101000a900473ffffffffffffffffffffffffffffffffffffffff166000604051602001526040518263ffffffff167c0100000000000000000000000000000000000000000000000000000000028152600401808273ffffffffffffffffffffffffffffffffffffffff1673ffffffffffffffffffffffffffffffffffffffff168152602001915050602060405180830381600087803b151561059557600080fd5b6102c65a03f115156105a657600080fd5b50505060405180519050905060008111156106ab578173ffffffffffffffffffffffffffffffffffffffff1663a9059cbb6000809054906101000a900473ffffffffffffffffffffffffffffffffffffffff16836000604051602001526040518363ffffffff167c0100000000000000000000000000000000000000000000000000000000028152600401808373ffffffffffffffffffffffffffffffffffffffff1673ffffffffffffffffffffffffffffffffffffffff16815260200182815260200192505050602060405180830381600087803b151561068757600080fd5b6102c65a03f1151561069857600080fd5b5050506040518051905015156106aa57fe5b5b505050565b6000809054906101000a900473ffffffffffffffffffffffffffffffffffffffff1673ffffffffffffffffffffffffffffffffffffffff163373ffffffffffffffffffffffffffffffffffffffff1614151561070b57600080fd5b816002819055508060049080519060200190610728929190611182565b505050565b60008060009054906101000a900473ffffffffffffffffffffffffffffffffffffffff1673ffffffffffffffffffffffffffffffffffffffff163373ffffffffffffffffffffffffffffffffffffffff1614151561078a57600080fd5b600090505b6003805490508110156107ec576107df6003828154811015156107ae57fe5b906000526020600020900160009054906101000a900473ffffffffffffffffffffffffffffffffffffffff1661043d565b808060010191505061078f565b6001600560006101000a81548160ff02191690831515021790555050565b600160009054906101000a900473ffffffffffffffffffffffffffffffffffffffff1681565b600560019054906101000a900473ffffffffffffffffffffffffffffffffffffffff1681565b60025481565b600080600160009054906101000a900473ffffffffffffffffffffffffffffffffffffffff1673ffffffffffffffffffffffffffffffffffffffff163373ffffffffffffffffffffffffffffffffffffffff161415156108bb57600080fd5b8291508173ffffffffffffffffffffffffffffffffffffffff1663dd62ed3e6000809054906101000a900473ffffffffffffffffffffffffffffffffffffffff16306000604051602001526040518363ffffffff167c0100000000000000000000000000000000000000000000000000000000028152600401808373ffffffffffffffffffffffffffffffffffffffff1673ffffffffffffffffffffffffffffffffffffffff1681526020018273ffffffffffffffffffffffffffffffffffffffff1673ffffffffffffffffffffffffffffffffffffffff16815260200192505050602060405180830381600087803b15156109b657600080fd5b6102c65a03f115156109c757600080fd5b5050506040518051905090506000811115610b00578173ffffffffffffffffffffffffffffffffffffffff166323b872dd6000809054906101000a900473ffffffffffffffffffffffffffffffffffffffff1630846000604051602001526040518463ffffffff167c0100000000000000000000000000000000000000000000000000000000028152600401808473ffffffffffffffffffffffffffffffffffffffff1673ffffffffffffffffffffffffffffffffffffffff1681526020018373ffffffffffffffffffffffffffffffffffffffff1673ffffffffffffffffffffffffffffffffffffffff1681526020018281526020019350505050602060405180830381600087803b1515610adc57600080fd5b6102c65a03f11515610aed57600080fd5b505050604051805190501515610aff57fe5b5b60038054806001018281610b1491906111cf565b9160005260206000209001600085909190916101000a81548173ffffffffffffffffffffffffffffffffffffffff021916908373ffffffffffffffffffffffffffffffffffffffff16021790555050505050565b6000809054906101000a900473ffffffffffffffffffffffffffffffffffffffff1681565b6000600560009054906101000a900460ff16151515610bab57600080fd5b600160009054906101000a900473ffffffffffffffffffffffffffffffffffffffff1673ffffffffffffffffffffffffffffffffffffffff163373ffffffffffffffffffffffffffffffffffffffff16141515610c0757600080fd5b839050818173ffffffffffffffffffffffffffffffffffffffff166370a08231306000604051602001526040518263ffffffff167c0100000000000000000000000000000000000000000000000000000000028152600401808273ffffffffffffffffffffffffffffffffffffffff1673ffffffffffffffffffffffffffffffffffffffff168152602001915050602060405180830381600087803b1515610cae57600080fd5b6102c65a03f11515610cbf57600080fd5b5050506040518051905010151515610cd357fe5b8073ffffffffffffffffffffffffffffffffffffffff1663095ea7b3600560019054906101000a900473ffffffffffffffffffffffffffffffffffffffff16846000604051602001526040518363ffffffff167c0100000000000000000000000000000000000000000000000000000000028152600401808373ffffffffffffffffffffffffffffffffffffffff1673ffffffffffffffffffffffffffffffffffffffff16815260200182815260200192505050602060405180830381600087803b1515610da057600080fd5b6102c65a03f11515610db157600080fd5b505050604051805190501515610dc357fe5b600560019054906101000a900473ffffffffffffffffffffffffffffffffffffffff1673ffffffffffffffffffffffffffffffffffffffff1663969e37568585856040518463ffffffff167c0100000000000000000000000000000000000000000000000000000000028152600401808473ffffffffffffffffffffffffffffffffffffffff1673ffffffffffffffffffffffffffffffffffffffff1681526020018373ffffffffffffffffffffffffffffffffffffffff1673ffffffffffffffffffffffffffffffffffffffff1681526020018281526020019350505050600060405180830381600087803b1515610ebb57600080fd5b6102c65a03f11515610ecc57600080fd5b50505050505050565b600481815481101515610ee457fe5b90600052602060002090016000915090505481565b600560009054906101000a900460ff1681565b6000600160009054906101000a900473ffffffffffffffffffffffffffffffffffffffff1673ffffffffffffffffffffffffffffffffffffffff163373ffffffffffffffffffffffffffffffffffffffff16141515610f6a57600080fd5b6000600380549050111515610f7b57fe5b610f84826110d9565b9050600160038054905003811015611032576003600160038054905003815481101515610fad57fe5b906000526020600020900160009054906101000a900473ffffffffffffffffffffffffffffffffffffffff16600382815481101515610fe857fe5b906000526020600020900160006101000a81548173ffffffffffffffffffffffffffffffffffffffff021916908373ffffffffffffffffffffffffffffffffffffffff1602179055505b600360016003805490500381548110151561104957fe5b906000526020600020900160006101000a81549073ffffffffffffffffffffffffffffffffffffffff0219169055600380548091906001900361108c91906111fb565b506110968261043d565b5050565b6003818154811015156110a957fe5b90600052602060002090016000915054906101000a900473ffffffffffffffffffffffffffffffffffffffff1681565b600080600090505b600380549050811015611171578273ffffffffffffffffffffffffffffffffffffffff1660038281548110151561111457fe5b906000526020600020900160009054906101000a900473ffffffffffffffffffffffffffffffffffffffff1673ffffffffffffffffffffffffffffffffffffffff1614156111645780915061117c565b80806001019150506110e1565b6000151561117b57fe5b5b50919050565b8280548282559060005260206000209081019282156111be579160200282015b828111156111bd5782518255916020019190600101906111a2565b5b5090506111cb9190611227565b5090565b8154818355818115116111f6578183600052602060002091820191016111f59190611227565b5b505050565b815481835581811511611222578183600052602060002091820191016112219190611227565b5b505050565b61124991905b8082111561124557600081600090555060010161122d565b5090565b905600a165627a7a7230582006c2cfb814c1e7f41790620cdf53928694edba0f3bbe2fdbefefe9f0d79af5ce0029",
  "source": "pragma solidity ^0.4.15;\r\n\r\nimport \"./Exchanger.sol\";\r\nimport \"./AbstractToken.sol\";\r\n\r\ncontract Portfolio {\r\n    address public owner;\r\n    address public manager;\r\n    uint public algorythmId;\r\n    address[] public currencies;\r\n    uint[] public algorythmParams;\r\n    bool public isClosed = false;\r\n    Exchanger public exchanger;\r\n    \r\n    modifier onlyOpened {\r\n        require(!isClosed);\r\n        _;\r\n    }\r\n    modifier onlyOwner {\r\n        require(msg.sender == owner);\r\n        _;\r\n    }\r\n    modifier onlyManager {\r\n        require(msg.sender == manager);\r\n        _;\r\n    }\r\n    \r\n    function Portfolio(address _owner, uint _algorythmId, address[] _currencies, \r\n        uint[] _algorythmParams, address _exchanger, address _manager) public {\r\n        require(_owner != 0x0);\r\n        \r\n        algorythmId = _algorythmId;\r\n        currencies = _currencies;\r\n        algorythmParams = _algorythmParams;\r\n        exchanger = Exchanger(_exchanger);\r\n        manager = _manager;\r\n    }\r\n    function addCurrency(address _currency) public onlyManager {\r\n        AbstractToken token = AbstractToken(_currency);\r\n        \r\n        uint allowedTokens = token.allowance(owner, address(this));\r\n        if (allowedTokens > 0) {\r\n            assert(token.transferFrom(owner, address(this), allowedTokens));\r\n        }\r\n        \r\n        currencies.push(_currency);\r\n    }\r\n\tfunction getCurrencyIndex(address _forSearch) private returns(uint index) {\r\n        for (uint curCurrencyIndex = 0; curCurrencyIndex < currencies.length; curCurrencyIndex++) {\r\n            if (currencies[curCurrencyIndex] == _forSearch) {\r\n                return curCurrencyIndex;\r\n            }\r\n        }\r\n\t\t// The currency is not found\r\n\t\tassert(false);\r\n\t}\r\n    function removeCurrency(address _currency) public onlyManager {\r\n        assert(currencies.length > 0);\r\n        \r\n        uint curCurrencyIndex = getCurrencyIndex(_currency);\r\n        if (curCurrencyIndex < currencies.length - 1) {\r\n            currencies[curCurrencyIndex] = currencies[currencies.length - 1];\r\n        }\r\n        delete currencies[currencies.length - 1];\r\n        currencies.length--;\r\n        \r\n        returnCurrency(_currency);\r\n    }\r\n    function changeAlgorythmParams(uint _algorythmId, uint[] _algorythmParams) public onlyOwner {\r\n        algorythmId = _algorythmId;\r\n        algorythmParams = _algorythmParams;\r\n    }\r\n    function returnCurrency(address _currency) public {\r\n        assert(msg.sender == owner || msg.sender == address(this));\r\n        \r\n        AbstractToken token = AbstractToken(_currency);\r\n        uint tokenBalance = token.balanceOf(owner);\r\n        if (tokenBalance > 0) {\r\n            assert(token.transfer(owner, tokenBalance));\r\n        }\r\n    }\r\n    function close() public onlyOwner {\r\n        for (uint i = 0; i < currencies.length; i++) {\r\n            returnCurrency(currencies[i]);\r\n        }\r\n        isClosed = true;\r\n    }\r\n    function exchange(address _fromCurrency, address _toCurrency, uint _value) public onlyOpened onlyManager {\r\n        // TODO: add check for currency allowance\r\n        AbstractToken fromToken = AbstractToken(_fromCurrency);\r\n        \r\n        assert(fromToken.balanceOf(address(this)) >= _value);\r\n        assert(fromToken.approve(address(exchanger), _value));\r\n        \r\n        exchanger.exchange(_fromCurrency, _toCurrency, _value);\r\n    }\r\n}",
  "sourcePath": "C:\\Users\\mi\\Desktop\\My projects\\blockchain\\WealthMan.io\\contracts\\Portfolio.sol",
  "compiler": {
    "name": "solc",
    "version": "0.4.18+commit.9cf6e910.Emscripten.clang"
  },
  "schemaVersion": "1.0.1",
  "updatedAt": "2017-12-06T15:08:59.313Z"
}