{
  "contractName": "PortfolioManager",
  "abi": [
    {
      "constant": false,
      "inputs": [
        {
          "name": "_algorythmId",
          "type": "uint256"
        },
        {
          "name": "_currencies",
          "type": "address[]"
        },
        {
          "name": "_algorythmParams",
          "type": "uint256[]"
        }
      ],
      "name": "createPortfolio",
      "outputs": [
        {
          "name": "portfolioAddress",
          "type": "address"
        }
      ],
      "payable": false,
      "type": "function",
      "stateMutability": "nonpayable"
    },
    {
      "constant": true,
      "inputs": [],
      "name": "manager",
      "outputs": [
        {
          "name": "",
          "type": "address"
        }
      ],
      "payable": false,
      "type": "function",
      "stateMutability": "view"
    },
    {
      "constant": true,
      "inputs": [],
      "name": "exchanger",
      "outputs": [
        {
          "name": "",
          "type": "address"
        }
      ],
      "payable": false,
      "type": "function",
      "stateMutability": "view"
    },
    {
      "constant": false,
      "inputs": [
        {
          "name": "_from",
          "type": "address"
        },
        {
          "name": "_to",
          "type": "address"
        },
        {
          "name": "_currencies",
          "type": "address[]"
        }
      ],
      "name": "transferMoney",
      "outputs": [],
      "payable": false,
      "type": "function",
      "stateMutability": "nonpayable"
    },
    {
      "constant": true,
      "inputs": [
        {
          "name": "",
          "type": "address"
        },
        {
          "name": "",
          "type": "uint256"
        }
      ],
      "name": "portfoliosOf",
      "outputs": [
        {
          "name": "",
          "type": "address"
        }
      ],
      "payable": false,
      "type": "function",
      "stateMutability": "view"
    },
    {
      "constant": false,
      "inputs": [
        {
          "name": "_user",
          "type": "address"
        }
      ],
      "name": "getPortfoliosOf",
      "outputs": [
        {
          "name": "portfolios",
          "type": "address[]"
        }
      ],
      "payable": false,
      "type": "function",
      "stateMutability": "nonpayable"
    },
    {
      "inputs": [
        {
          "name": "_exchanger",
          "type": "address"
        },
        {
          "name": "_manager",
          "type": "address"
        }
      ],
      "payable": false,
      "type": "constructor",
      "stateMutability": "nonpayable"
    }
  ],
  "bytecode": "0x6060604052341561000f57600080fd5b60405160408061204e8339810160405280805190602001909190805190602001909190505080600160006101000a81548173ffffffffffffffffffffffffffffffffffffffff021916908373ffffffffffffffffffffffffffffffffffffffff160217905550816000806101000a81548173ffffffffffffffffffffffffffffffffffffffff021916908373ffffffffffffffffffffffffffffffffffffffff1602179055505050611f88806100c66000396000f300606060405260043610610078576000357c0100000000000000000000000000000000000000000000000000000000900463ffffffff16806322b81a2b1461007d578063481c6a75146101605780634d12fca4146101b557806368fd6d761461020a5780638ff0e56b146102a2578063ffd5f72414610324575b600080fd5b341561008857600080fd5b61011e600480803590602001909190803590602001908201803590602001908080602002602001604051908101604052809392919081815260200183836020028082843782019150505050505091908035906020019082018035906020019080806020026020016040519081016040528093929190818152602001838360200280828437820191505050505050919050506103b2565b604051808273ffffffffffffffffffffffffffffffffffffffff1673ffffffffffffffffffffffffffffffffffffffff16815260200191505060405180910390f35b341561016b57600080fd5b6101736105fc565b604051808273ffffffffffffffffffffffffffffffffffffffff1673ffffffffffffffffffffffffffffffffffffffff16815260200191505060405180910390f35b34156101c057600080fd5b6101c8610622565b604051808273ffffffffffffffffffffffffffffffffffffffff1673ffffffffffffffffffffffffffffffffffffffff16815260200191505060405180910390f35b341561021557600080fd5b6102a0600480803573ffffffffffffffffffffffffffffffffffffffff1690602001909190803573ffffffffffffffffffffffffffffffffffffffff1690602001909190803590602001908201803590602001908080602002602001604051908101604052809392919081815260200183836020028082843782019150505050505091905050610647565b005b34156102ad57600080fd5b6102e2600480803573ffffffffffffffffffffffffffffffffffffffff16906020019091908035906020019091905050610888565b604051808273ffffffffffffffffffffffffffffffffffffffff1673ffffffffffffffffffffffffffffffffffffffff16815260200191505060405180910390f35b341561032f57600080fd5b61035b600480803573ffffffffffffffffffffffffffffffffffffffff169060200190919050506108d6565b6040518080602001828103825283818151815260200191508051906020019060200280838360005b8381101561039e578082015181840152602081019050610383565b505050509050019250505060405180910390f35b600080338585856000809054906101000a900473ffffffffffffffffffffffffffffffffffffffff16600160009054906101000a900473ffffffffffffffffffffffffffffffffffffffff166104066109a9565b808773ffffffffffffffffffffffffffffffffffffffff1673ffffffffffffffffffffffffffffffffffffffff16815260200186815260200180602001806020018573ffffffffffffffffffffffffffffffffffffffff1673ffffffffffffffffffffffffffffffffffffffff1681526020018473ffffffffffffffffffffffffffffffffffffffff1673ffffffffffffffffffffffffffffffffffffffff168152602001838103835287818151815260200191508051906020019060200280838360005b838110156104e65780820151818401526020810190506104cb565b50505050905001838103825286818151815260200191508051906020019060200280838360005b8381101561052857808201518184015260208101905061050d565b5050505090500198505050505050505050604051809103906000f080151561054f57600080fd5b9050600260003373ffffffffffffffffffffffffffffffffffffffff1673ffffffffffffffffffffffffffffffffffffffff16815260200190815260200160002080548060010182816105a291906109b9565b9160005260206000209001600083909190916101000a81548173ffffffffffffffffffffffffffffffffffffffff021916908373ffffffffffffffffffffffffffffffffffffffff16021790555050809150509392505050565b600160009054906101000a900473ffffffffffffffffffffffffffffffffffffffff1681565b6000809054906101000a900473ffffffffffffffffffffffffffffffffffffffff1681565b60008060008092505b835183101561088057838381518110151561066757fe5b9060200190602002015191508173ffffffffffffffffffffffffffffffffffffffff1663dd62ed3e87876000604051602001526040518363ffffffff167c0100000000000000000000000000000000000000000000000000000000028152600401808373ffffffffffffffffffffffffffffffffffffffff1673ffffffffffffffffffffffffffffffffffffffff1681526020018273ffffffffffffffffffffffffffffffffffffffff1673ffffffffffffffffffffffffffffffffffffffff16815260200192505050602060405180830381600087803b151561074a57600080fd5b6102c65a03f1151561075b57600080fd5b5050506040518051905090506000811115610873578173ffffffffffffffffffffffffffffffffffffffff166323b872dd8787846000604051602001526040518463ffffffff167c0100000000000000000000000000000000000000000000000000000000028152600401808473ffffffffffffffffffffffffffffffffffffffff1673ffffffffffffffffffffffffffffffffffffffff1681526020018373ffffffffffffffffffffffffffffffffffffffff1673ffffffffffffffffffffffffffffffffffffffff1681526020018281526020019350505050602060405180830381600087803b151561084f57600080fd5b6102c65a03f1151561086057600080fd5b50505060405180519050151561087257fe5b5b8280600101935050610650565b505050505050565b6002602052816000526040600020818154811015156108a357fe5b90600052602060002090016000915091509054906101000a900473ffffffffffffffffffffffffffffffffffffffff1681565b6108de6109e5565b600260008373ffffffffffffffffffffffffffffffffffffffff1673ffffffffffffffffffffffffffffffffffffffff16815260200190815260200160002080548060200260200160405190810160405280929190818152602001828054801561099d57602002820191906000526020600020905b8160009054906101000a900473ffffffffffffffffffffffffffffffffffffffff1673ffffffffffffffffffffffffffffffffffffffff1681526020019060010190808311610953575b50505050509050919050565b60405161153e80610a1f83390190565b8154818355818115116109e0578183600052602060002091820191016109df91906109f9565b5b505050565b602060405190810160405280600081525090565b610a1b91905b80821115610a175760008160009055506001016109ff565b5090565b90560060606040526000600560006101000a81548160ff02191690831515021790555034156200002b57600080fd5b6040516200153e3803806200153e8339810160405280805190602001909190805190602001909190805182019190602001805182019190602001805190602001909190805190602001909190505060008673ffffffffffffffffffffffffffffffffffffffff1614151515620000a057600080fd5b846002819055508360039080519060200190620000bf92919062000167565b508260049080519060200190620000d8929190620001f6565b5081600560016101000a81548173ffffffffffffffffffffffffffffffffffffffff021916908373ffffffffffffffffffffffffffffffffffffffff16021790555080600160006101000a81548173ffffffffffffffffffffffffffffffffffffffff021916908373ffffffffffffffffffffffffffffffffffffffff160217905550505050505050620002b6565b828054828255906000526020600020908101928215620001e3579160200282015b82811115620001e25782518260006101000a81548173ffffffffffffffffffffffffffffffffffffffff021916908373ffffffffffffffffffffffffffffffffffffffff1602179055509160200191906001019062000188565b5b509050620001f2919062000248565b5090565b82805482825590600052602060002090810192821562000235579160200282015b828111156200023457825182559160200191906001019062000217565b5b5090506200024491906200028e565b5090565b6200028b91905b808211156200028757600081816101000a81549073ffffffffffffffffffffffffffffffffffffffff0219169055506001016200024f565b5090565b90565b620002b391905b80821115620002af57600081600090555060010162000295565b5090565b90565b61127880620002c66000396000f3006060604052600436106100c5576000357c0100000000000000000000000000000000000000000000000000000000900463ffffffff16806313386486146100ca5780633bd4c7641461010357806343d726d614610166578063481c6a751461017b5780634d12fca4146101d057806364075a4f146102255780638ab234b61461024e5780638da5cb5b14610287578063969e3756146102dc578063b0cb1de61461033d578063c2b6b58c14610374578063c5d3a107146103a1578063f6d1c271146103da575b600080fd5b34156100d557600080fd5b610101600480803573ffffffffffffffffffffffffffffffffffffffff1690602001909190505061043d565b005b341561010e57600080fd5b6101646004808035906020019091908035906020019082018035906020019080806020026020016040519081016040528093929190818152602001838360200280828437820191505050505050919050506106b0565b005b341561017157600080fd5b61017961072d565b005b341561018657600080fd5b61018e61080a565b604051808273ffffffffffffffffffffffffffffffffffffffff1673ffffffffffffffffffffffffffffffffffffffff16815260200191505060405180910390f35b34156101db57600080fd5b6101e3610830565b604051808273ffffffffffffffffffffffffffffffffffffffff1673ffffffffffffffffffffffffffffffffffffffff16815260200191505060405180910390f35b341561023057600080fd5b610238610856565b6040518082815260200191505060405180910390f35b341561025957600080fd5b610285600480803573ffffffffffffffffffffffffffffffffffffffff1690602001909190505061085c565b005b341561029257600080fd5b61029a610b68565b604051808273ffffffffffffffffffffffffffffffffffffffff1673ffffffffffffffffffffffffffffffffffffffff16815260200191505060405180910390f35b34156102e757600080fd5b61033b600480803573ffffffffffffffffffffffffffffffffffffffff1690602001909190803573ffffffffffffffffffffffffffffffffffffffff16906020019091908035906020019091905050610b8d565b005b341561034857600080fd5b61035e6004808035906020019091905050610ed5565b6040518082815260200191505060405180910390f35b341561037f57600080fd5b610387610ef9565b604051808215151515815260200191505060405180910390f35b34156103ac57600080fd5b6103d8600480803573ffffffffffffffffffffffffffffffffffffffff16906020019091905050610f0c565b005b34156103e557600080fd5b6103fb600480803590602001909190505061109a565b604051808273ffffffffffffffffffffffffffffffffffffffff1673ffffffffffffffffffffffffffffffffffffffff16815260200191505060405180910390f35b6000806000809054906101000a900473ffffffffffffffffffffffffffffffffffffffff1673ffffffffffffffffffffffffffffffffffffffff163373ffffffffffffffffffffffffffffffffffffffff1614806104c657503073ffffffffffffffffffffffffffffffffffffffff163373ffffffffffffffffffffffffffffffffffffffff16145b15156104ce57fe5b8291508173ffffffffffffffffffffffffffffffffffffffff166370a082316000809054906101000a900473ffffffffffffffffffffffffffffffffffffffff166000604051602001526040518263ffffffff167c0100000000000000000000000000000000000000000000000000000000028152600401808273ffffffffffffffffffffffffffffffffffffffff1673ffffffffffffffffffffffffffffffffffffffff168152602001915050602060405180830381600087803b151561059557600080fd5b6102c65a03f115156105a657600080fd5b50505060405180519050905060008111156106ab578173ffffffffffffffffffffffffffffffffffffffff1663a9059cbb6000809054906101000a900473ffffffffffffffffffffffffffffffffffffffff16836000604051602001526040518363ffffffff167c0100000000000000000000000000000000000000000000000000000000028152600401808373ffffffffffffffffffffffffffffffffffffffff1673ffffffffffffffffffffffffffffffffffffffff16815260200182815260200192505050602060405180830381600087803b151561068757600080fd5b6102c65a03f1151561069857600080fd5b5050506040518051905015156106aa57fe5b5b505050565b6000809054906101000a900473ffffffffffffffffffffffffffffffffffffffff1673ffffffffffffffffffffffffffffffffffffffff163373ffffffffffffffffffffffffffffffffffffffff1614151561070b57600080fd5b816002819055508060049080519060200190610728929190611182565b505050565b60008060009054906101000a900473ffffffffffffffffffffffffffffffffffffffff1673ffffffffffffffffffffffffffffffffffffffff163373ffffffffffffffffffffffffffffffffffffffff1614151561078a57600080fd5b600090505b6003805490508110156107ec576107df6003828154811015156107ae57fe5b906000526020600020900160009054906101000a900473ffffffffffffffffffffffffffffffffffffffff1661043d565b808060010191505061078f565b6001600560006101000a81548160ff02191690831515021790555050565b600160009054906101000a900473ffffffffffffffffffffffffffffffffffffffff1681565b600560019054906101000a900473ffffffffffffffffffffffffffffffffffffffff1681565b60025481565b600080600160009054906101000a900473ffffffffffffffffffffffffffffffffffffffff1673ffffffffffffffffffffffffffffffffffffffff163373ffffffffffffffffffffffffffffffffffffffff161415156108bb57600080fd5b8291508173ffffffffffffffffffffffffffffffffffffffff1663dd62ed3e6000809054906101000a900473ffffffffffffffffffffffffffffffffffffffff16306000604051602001526040518363ffffffff167c0100000000000000000000000000000000000000000000000000000000028152600401808373ffffffffffffffffffffffffffffffffffffffff1673ffffffffffffffffffffffffffffffffffffffff1681526020018273ffffffffffffffffffffffffffffffffffffffff1673ffffffffffffffffffffffffffffffffffffffff16815260200192505050602060405180830381600087803b15156109b657600080fd5b6102c65a03f115156109c757600080fd5b5050506040518051905090506000811115610b00578173ffffffffffffffffffffffffffffffffffffffff166323b872dd6000809054906101000a900473ffffffffffffffffffffffffffffffffffffffff1630846000604051602001526040518463ffffffff167c0100000000000000000000000000000000000000000000000000000000028152600401808473ffffffffffffffffffffffffffffffffffffffff1673ffffffffffffffffffffffffffffffffffffffff1681526020018373ffffffffffffffffffffffffffffffffffffffff1673ffffffffffffffffffffffffffffffffffffffff1681526020018281526020019350505050602060405180830381600087803b1515610adc57600080fd5b6102c65a03f11515610aed57600080fd5b505050604051805190501515610aff57fe5b5b60038054806001018281610b1491906111cf565b9160005260206000209001600085909190916101000a81548173ffffffffffffffffffffffffffffffffffffffff021916908373ffffffffffffffffffffffffffffffffffffffff16021790555050505050565b6000809054906101000a900473ffffffffffffffffffffffffffffffffffffffff1681565b6000600560009054906101000a900460ff16151515610bab57600080fd5b600160009054906101000a900473ffffffffffffffffffffffffffffffffffffffff1673ffffffffffffffffffffffffffffffffffffffff163373ffffffffffffffffffffffffffffffffffffffff16141515610c0757600080fd5b839050818173ffffffffffffffffffffffffffffffffffffffff166370a08231306000604051602001526040518263ffffffff167c0100000000000000000000000000000000000000000000000000000000028152600401808273ffffffffffffffffffffffffffffffffffffffff1673ffffffffffffffffffffffffffffffffffffffff168152602001915050602060405180830381600087803b1515610cae57600080fd5b6102c65a03f11515610cbf57600080fd5b5050506040518051905010151515610cd357fe5b8073ffffffffffffffffffffffffffffffffffffffff1663095ea7b3600560019054906101000a900473ffffffffffffffffffffffffffffffffffffffff16846000604051602001526040518363ffffffff167c0100000000000000000000000000000000000000000000000000000000028152600401808373ffffffffffffffffffffffffffffffffffffffff1673ffffffffffffffffffffffffffffffffffffffff16815260200182815260200192505050602060405180830381600087803b1515610da057600080fd5b6102c65a03f11515610db157600080fd5b505050604051805190501515610dc357fe5b600560019054906101000a900473ffffffffffffffffffffffffffffffffffffffff1673ffffffffffffffffffffffffffffffffffffffff1663969e37568585856040518463ffffffff167c0100000000000000000000000000000000000000000000000000000000028152600401808473ffffffffffffffffffffffffffffffffffffffff1673ffffffffffffffffffffffffffffffffffffffff1681526020018373ffffffffffffffffffffffffffffffffffffffff1673ffffffffffffffffffffffffffffffffffffffff1681526020018281526020019350505050600060405180830381600087803b1515610ebb57600080fd5b6102c65a03f11515610ecc57600080fd5b50505050505050565b600481815481101515610ee457fe5b90600052602060002090016000915090505481565b600560009054906101000a900460ff1681565b6000600160009054906101000a900473ffffffffffffffffffffffffffffffffffffffff1673ffffffffffffffffffffffffffffffffffffffff163373ffffffffffffffffffffffffffffffffffffffff16141515610f6a57600080fd5b6000600380549050111515610f7b57fe5b610f84826110d9565b9050600160038054905003811015611032576003600160038054905003815481101515610fad57fe5b906000526020600020900160009054906101000a900473ffffffffffffffffffffffffffffffffffffffff16600382815481101515610fe857fe5b906000526020600020900160006101000a81548173ffffffffffffffffffffffffffffffffffffffff021916908373ffffffffffffffffffffffffffffffffffffffff1602179055505b600360016003805490500381548110151561104957fe5b906000526020600020900160006101000a81549073ffffffffffffffffffffffffffffffffffffffff0219169055600380548091906001900361108c91906111fb565b506110968261043d565b5050565b6003818154811015156110a957fe5b90600052602060002090016000915054906101000a900473ffffffffffffffffffffffffffffffffffffffff1681565b600080600090505b600380549050811015611171578273ffffffffffffffffffffffffffffffffffffffff1660038281548110151561111457fe5b906000526020600020900160009054906101000a900473ffffffffffffffffffffffffffffffffffffffff1673ffffffffffffffffffffffffffffffffffffffff1614156111645780915061117c565b80806001019150506110e1565b6000151561117b57fe5b5b50919050565b8280548282559060005260206000209081019282156111be579160200282015b828111156111bd5782518255916020019190600101906111a2565b5b5090506111cb9190611227565b5090565b8154818355818115116111f6578183600052602060002091820191016111f59190611227565b5b505050565b815481835581811511611222578183600052602060002091820191016112219190611227565b5b505050565b61124991905b8082111561124557600081600090555060010161122d565b5090565b905600a165627a7a7230582006c2cfb814c1e7f41790620cdf53928694edba0f3bbe2fdbefefe9f0d79af5ce0029a165627a7a723058202cf7bd9e2daf22046aa2af2e39389eca24ab5a035545819764eab35a0a96adf30029",
  "source": "pragma solidity ^0.4.15;\r\n\r\nimport \"./Portfolio.sol\";\r\n\r\ncontract PortfolioManager {\r\n    address public exchanger;\r\n    address public manager;\r\n    mapping (address => address[]) public portfoliosOf;\r\n    function PortfolioManager(address _exchanger, address _manager) public {\r\n        manager = _manager;\r\n        exchanger = _exchanger;\r\n    }\r\n    \r\n    function createPortfolio(uint _algorythmId, address[] _currencies, \r\n        uint[] _algorythmParams) \r\n        public returns(address portfolioAddress) {\r\n        Portfolio portfolio = new Portfolio(msg.sender, _algorythmId, _currencies, \r\n        _algorythmParams, exchanger, manager);\r\n        // transferMoney(msg.sender, address(portfolio), _currencies);\r\n        portfoliosOf[msg.sender].push(address(portfolio));\r\n        \r\n        return address(portfolio);\r\n    }\r\n    function getPortfoliosOf(address _user) public returns(address[] portfolios) {\r\n        return portfoliosOf[_user];\r\n    }\r\n    function transferMoney(address _from, address _to, address[] _currencies) public {\r\n        for (uint i = 0; i < _currencies.length; i++) {\r\n            AbstractToken token = AbstractToken(_currencies[i]);\r\n            uint allowedTokens = token.allowance(_from, _to);\r\n            \r\n            if (allowedTokens > 0) {\r\n                assert(token.transferFrom(_from, _to, allowedTokens));\r\n            }\r\n        }\r\n    }\r\n}",
  "sourcePath": "C:\\Users\\mi\\Desktop\\My projects\\blockchain\\WealthMan.io\\contracts\\PortfolioManager.sol",
  "compiler": {
    "name": "solc",
    "version": "0.4.18+commit.9cf6e910.Emscripten.clang"
  },
  "schemaVersion": "1.0.1",
  "updatedAt": "2017-12-06T15:08:59.330Z"
}